{
  "contractName": "SimpleCounter",
  "abi": [
    {
      "constant": true,
      "inputs": [],
      "name": "counter",
      "outputs": [
        {
          "name": "",
          "type": "int256"
        }
      ],
      "payable": false,
      "stateMutability": "view",
      "type": "function"
    },
    {
      "anonymous": false,
      "inputs": [
        {
          "indexed": false,
          "name": "counter",
          "type": "int256"
        }
      ],
      "name": "counterChange",
      "type": "event"
    },
    {
      "constant": false,
      "inputs": [],
      "name": "increment",
      "outputs": [],
      "payable": false,
      "stateMutability": "nonpayable",
      "type": "function"
    },
    {
      "constant": false,
      "inputs": [],
      "name": "decrement",
      "outputs": [],
      "payable": false,
      "stateMutability": "nonpayable",
      "type": "function"
    },
    {
      "constant": true,
      "inputs": [],
      "name": "getCounter",
      "outputs": [
        {
          "name": "",
          "type": "int256"
        }
      ],
      "payable": false,
      "stateMutability": "view",
      "type": "function"
    }
  ],
  "bytecode": "0x60806040526000805534801561001457600080fd5b506101bf806100246000396000f300608060405260043610610062576000357c0100000000000000000000000000000000000000000000000000000000900463ffffffff1680632baeceb71461006757806361bc221a1461007e5780638ada066e146100a9578063d09de08a146100d4575b600080fd5b34801561007357600080fd5b5061007c6100eb565b005b34801561008a57600080fd5b50610093610138565b6040518082815260200191505060405180910390f35b3480156100b557600080fd5b506100be61013e565b6040518082815260200191505060405180910390f35b3480156100e057600080fd5b506100e9610147565b005b6000808154809291906001900391905055507fea2b880d6bea747a6ccc8790f0a1fb802f424f5840b3ef89790ce5673a3865a26000546040518082815260200191505060405180910390a1565b60005481565b60008054905090565b60008081548092919060010191905055507fea2b880d6bea747a6ccc8790f0a1fb802f424f5840b3ef89790ce5673a3865a26000546040518082815260200191505060405180910390a15600a165627a7a723058209e289da680493365ec8927e93935244d37c8e920ebb9815db02468c1e40055dc0029",
  "source": "pragma solidity ^0.4.24;\n\ncontract SimpleCounter {\n    int256 public counter = 0;\n    \n    event counterChange(int256 counter);\n\n    function increment() public {\n        counter++;\n        emit counterChange(counter);\n    }\n\n    function decrement() public {\n        counter--;\n        emit counterChange(counter);\n    }\n\n    function getCounter() public view returns (int256) {\n        return counter;\n    }\n}",
  "sourcePath": "/home/tomer/drizzle-part-2/contracts/SimpleCounter.sol",
  "compiler": {
    "name": "solc",
    "version": "0.4.24+commit.e67f0147.Emscripten.clang"
  },
  "schemaVersion": "2.0.1",
  "updatedAt": "2018-10-01T16:32:40.343Z"
}